:020000040800F2
:1000000000800120291E00086D1E00086D1E0008DA
:100010006D1E00086D1E00086D1E00080000000027
:100020000000000000000000000000006D1E00083D
:100030006D1E0008000000006D1E00086D1E000807
:100040006D1E00086D1E00086D1E0008ED1A0008E8
:100050006D1E00086D1E00086D1E00086D1E000854
:100060006D1E00086D1E00086D1E00086D1E000844
:100070006D1E0008291700086D1E00086D1E00087F
:10008000B51600086D1E00086D1E00086D1E0008E4
:100090006D1E00086D1E00086D1E00086D1E000814
:1000A0006D1E00086D1E00086D1E00086D1E000804
:1000B000D1110008F9110008211200086D1E000876
:1000C0006D1E00086D1E00086D1E00086D1E0008E4
:1000D0006D1E000855150008C51500086D1E0008A6
:1000E0006D1E00086D1E00086D1E00086D1E0008C4
:1000F0006D1E00086D1E00086D1E00086D1E0008B4
:100100006D1E000851190008491200086D1E0008F4
:100110006D1E00086D1E0008711200089D12000877
:100120006D1E00086D1E00086D1E00086D1E000883
:1001300000000000000000000000000000000000BF
:1001400000000000000000000000000000000000AF
:10015000000000000000000000000000000000009F
:10016000000000000000000000000000000000008F
:10017000000000000000000000000000000000007F
:10018000000000000000000000000000000000006F
:10019000000000000000000000000000000000005F
:1001A000000000000000000000000000000000004F
:1001B000000000000000000000000000000000003F
:1001C000000000000000000000000000000000002F
:1001D000000000000000000000000000000000001F
:0401E0005FF8E0F1F3
:1001E40010B5054C237833B9044B13B10448AFF36D
:1001F40000800123237010BDE002002000000000F5
:10020400F826000808B5034B1BB103490348AFF3B4
:10021400008008BD00000000E4020020F826000869
:10022400034613F8012B002AFBD1181A0138704732
:1002340081F0004102E000BF83F0004330B54FEA93
:1002440041044FEA430594EA050F08BF90EA020F00
:100254001FBF54EA000C55EA020C7FEA645C7FEA93
:10026400655C00F0E2804FEA5454D4EB5555B8BFB6
:100274006D420CDD2C4480EA020281EA030382EA27
:10028400000083EA010180EA020281EA0303362DB9
:1002940088BF30BD11F0004F4FEA01314FF4801C8C
:1002A4004CEA113102D0404261EB410113F0004F9E
:1002B4004FEA03334CEA133302D0524263EB430355
:1002C40094EA050F00F0A780A4F10104D5F1200EF3
:1002D4000DDB02FA0EFC22FA05F2801841F100014E
:1002E40003FA0EF2801843FA05F359410EE0A5F122
:1002F40020050EF1200E012A03FA0EFC28BF4CF053
:10030400020C43FA05F3C01851EBE37101F0004508
:1003140007D54FF0000EDCF1000C7EEB00006EEB15
:100324000101B1F5801F1BD3B1F5001F0CD349089F
:100334005FEA30004FEA3C0C04F101044FEA4452F6
:1003440012F5800F80F09A80BCF1004F08BF5FEA7D
:10035400500C50F1000041EB045141EA050130BD5D
:100364005FEA4C0C404141EB010111F4801FA4F100
:100374000104E9D191F0000F04BF01460020B1FA55
:1003840081F308BF2033A3F10B03B3F120020CDA8D
:100394000C3208DD02F1140CC2F10C0201FA0CF06B
:1003A40021FA02F10CE002F11402D8BFC2F1200CD0
:1003B40001FA02F120FA0CFCDCBF41EA0C01904086
:1003C400E41AA2BF01EB0451294330BD6FEA0404CF
:1003D4001F3C1CDA0C340EDC04F11404C4F12002BA
:1003E40020FA04F001FA02F340EA030021FA04F3CC
:1003F40045EA030130BDC4F10C04C4F1200220FA23
:1004040002F001FA04F340EA0300294630BD21FA60
:1004140004F0294630BD94F0000F83F4801306BF26
:1004240081F480110134013D4EE77FEA645C18BF1A
:100434007FEA655C29D094EA050F08BF90EA020FB1
:1004440005D054EA000C04BF1946104630BD91EAA9
:10045400030F1EBF0021002030BD5FEA545C05D1AC
:100464004000494128BF41F0004130BD14F58004EB
:100474003CBF01F5801130BD01F0004545F0FE415F
:1004840041F470014FF0000030BD7FEA645C1ABF94
:10049400194610467FEA655C1CBF0B46024650EACB
:1004A400013406BF52EA033591EA030F41F40021F7
:1004B40030BD00BF90F0000F04BF0021704730B57D
:1004C4004FF4806404F132044FF000054FF0000152
:1004D40050E700BF90F0000F04BF0021704730B513
:1004E4004FF4806404F1320410F0004548BF4042E8
:1004F4004FF000013EE700BF42004FEAE2014FEA3D
:1005040031014FEA02701FBF12F07F4393F07F4F17
:1005140081F06051704732F07F4208BF704793F01A
:100524007F4F04BF41F40021704730B54FF460742D
:1005340001F0004521F000411CE700BF50EA010230
:1005440008BF704730B54FF000050AE050EA0102D9
:1005540008BF704730B511F0004502D5404261EB49
:1005640041014FF4806404F132045FEA915C3FF48A
:10057400D8AE4FF003025FEADC0C18BF03325FEA27
:10058400DC0C18BF033202EBDC02C2F1200300FAD8
:1005940003FC20FA02F001FA03FE40EA0E0021FAFD
:1005A40002F11444BDE600BF80F0004002E000BF49
:1005B40081F0004142001FBF5FEA410392EA030F4A
:1005C4007FEA226C7FEA236C6AD04FEA1262D2EB94
:1005D4001363C1BFD218414048404140B8BF5B4299
:1005E400192B88BF704710F0004F40F4000020F032
:1005F4007F4018BF404211F0004F41F4000121F048
:100604007F4118BF494292EA030F3FD0A2F1010291
:1006140041FA03FC10EB0C00C3F1200301FA03F1CF
:1006240000F0004302D5494260EB4000B0F5000FF2
:1006340013D3B0F1807F06D340084FEA310102F1B1
:100644000102FE2A51D2B1F1004F40EBC25008BF63
:1006540020F0010040EA03007047490040EB00002D
:1006640010F4000FA2F10102EDD1B0FA80FCACF15C
:10067400080CB2EB0C0200FA0CF0AABF00EBC2505B
:1006840052421843BCBFD0401843704792F0000F49
:1006940081F4000106BF80F400000132013BB5E79C
:1006A4004FEA41037FEA226C18BF7FEA236C21D012
:1006B40092EA030F04D092F0000F08BF0846704777
:1006C40090EA010F1CBF0020704712F07F4F04D145
:1006D400400028BF40F00040704712F100723CBF58
:1006E40000F50000704700F0004343F0FE4040F482
:1006F400000070477FEA226216BF08467FEA236340
:100704000146420206BF5FEA412390EA010F40F42A
:10071400800070474FF0000304E000BF10F0004376
:1007240048BF40425FEA000C08BF704743F096435D
:1007340001464FF000001CE050EA010208BF704778
:100744004FF000030AE000BF50EA010208BF7047FF
:1007540011F0004302D5404261EB41015FEA010C14
:1007640002BF84460146002043F0B64308BFA3F10C
:100774008053A3F50003BCFA8CF2083AA3EBC253EE
:1007840010DB01FA02FC634400FA02FCC2F120020D
:10079400BCF1004F20FA02F243EB020008BF20F044
:1007A4000100704702F1200201FA02FCC2F12002AA
:1007B40050EA4C0021FA02F243EB020008BF20EA9F
:1007C400DC7070474FF0FF0C1CEAD0521EBF1CEACD
:1007D400D15392EA0C0F93EA0C0F6FD01A4480EABB
:1007E400010C400218BF5FEA41211ED04FF00063A4
:1007F40043EA501043EA5111A0FB01310CF00040D0
:10080400B1F5000F3EBF490041EAD3715B0040EAF5
:10081400010062F17F02FD2A1DD8B3F1004F40EBC5
:10082400C25008BF20F00100704790F0000F0CF098
:10083400004C08BF49024CEA502040EA51207F3A5C
:10084400C2BFD2F1FF0340EAC250704740F4000037
:100854004FF00003013A5DDC12F1190FDCBF00F028
:1008640000407047C2F10002410021FA02F1C2F1D6
:10087400200200FA02FC5FEA310040F1000053EA72
:100884004C0308BF20EADC70704792F0000F00F0C0
:10089400004C02BF400010F4000F013AF9D040EAC6
:1008A4000C0093F0000F01F0004C02BF490011F45A
:1008B400000F013BF9D041EA0C018FE70CEAD15358
:1008C40092EA0C0F18BF93EA0C0F0AD030F0004CD8
:1008D40018BF31F0004CD8D180EA010000F000408C
:1008E400704790F0000F17BF90F0004F084691F04A
:1008F400000F91F0004F14D092EA0C0F01D1420284
:100904000FD193EA0C0F03D14B0218BF084608D14C
:1009140080EA010000F0004040F0FE4040F4000096
:10092400704740F0FE4040F4400070474FF0FF0C29
:100934001CEAD0521EBF1CEAD15392EA0C0F93EA70
:100944000C0F69D0A2EB030280EA010C49024FEAC2
:10095400402037D04FF0805343EA111143EA10137B
:100964000CF000408B4238BF5B0042F17D024FF433
:10097400000C8B4224BF5B1A40EA0C00B3EB510F0E
:1009840024BFA3EB510340EA5C00B3EB910F24BFF7
:10099400A3EB910340EA9C00B3EBD10F24BFA3EB7C
:1009A400D10340EADC001B0118BF5FEA1C1CE0D144
:1009B400FD2A3FF650AF8B4240EBC25008BF20F0F7
:1009C400010070470CF0004C4CEA50207F32C2BF4B
:1009D400D2F1FF0340EAC250704740F400004FF0E8
:1009E4000003013A37E792F0000F00F0004C02BF19
:1009F400400010F4000F013AF9D040EA0C0093F0E3
:100A0400000F01F0004C02BF490011F4000F013B3C
:100A1400F9D041EA0C0195E70CEAD15392EA0C0FA4
:100A240008D142027FF47DAF93EA0C0F7FF470AFDC
:100A3400084676E793EA0C0F04D14B023FF44CAF1F
:100A440008466EE730F0004C18BF31F0004CCAD1B4
:100A540030F000427FF45CAF31F000437FF43CAFF0
:100A64005FE700BF42000ED2B2F1FE4F0BD34FF04E
:100A74009E03B3EB126209D44FEA002343F0004310
:100A840023FA02F070474FF00000704712F1610F33
:100A940001D1420202D14FF0FF3070474FF0000005
:100AA400704700BF53B94AB9002908BF00281CBFCA
:100AB4004FF0FF314FF0FF3000F074B9ADF1080C86
:100AC4006DE904CE00F006F8DDF804E0DDE9022368
:100AD40004B070472DE9F0478C460446089E002B6D
:100AE4004BD18A42154667D9B2FA82F24AB1C2F1B1
:100AF400200701FA02F320FA07F7954047EA030CAE
:100B040094404FEA154EBCFBFEF71FFA85F80EFB26
:100B140017C307FB08F9210C41EA0343994509D996
:100B2400EB1807F1FF3180F01C81994540F21981DF
:100B3400023F2B44A3EB0903B3FBFEF00EFB10337F
:100B440000FB08F1A4B244EA0344A14209D92C19D8
:100B540000F1FF3380F00781A14240F204810238A2
:100B64002C4440EA07400027641A1EB10023D440F5
:100B7400C6E900433946BDE8F0878B4209D9002E07
:100B840000F0EC800027C6E9000138463946BDE88C
:100B9400F087B3FA83F7002F48D18B4202D3824205
:100BA40000F2FB80841A61EB030301209C46002EB3
:100BB400E0D0C6E9004CDDE702B9FFDEB2FA82F20A
:100BC400002A40F08F800127491B4FEA15481FFA7D
:100BD40085F9B1FBF8FE08FB1E1109FB0EF04FEA84
:100BE400144C4CEA0143984207D9EB180EF1FF313B
:100BF40002D2984200F2CD808E461B1AB3FBF8F065
:100C040008FB103309FB00F9A4B244EA0344A145EC
:100C140007D92C1900F1FF3302D2A14500F2B680A6
:100C24001846A4EB090440EA0E409EE7C7F12005EC
:100C3400BB4022FA05FC4CEA030C21FA05F44FEA06
:100C44001C4EB4FBFEF91FFA8CF80EFB194420FA73
:100C540005F3B94009FB08FA19430B0C43EA0444B1
:100C6400A24502FA07F200FA07F30BD91CEB0404BD
:100C740009F1FF3080F08880A24540F28580A9F117
:100C840002096444A4EB0A04B4FBFEF00EFB104416
:100C940000FB08FA89B241EA0444A24508D91CEBD6
:100CA400040400F1FF316BD2A24569D902386444CF
:100CB40040EA0940A0FB0289A4EB0A044C454146E2
:100CC400CE4654D351D0002E69D05A1A64EB0E0488
:100CD40004FA05F522FA07F3FC401D43C6E9005463
:100CE400002747E79540C2F1200321FA03F04FEAB9
:100CF4001548B0FBF8F71FFA85F908FB170024FA2A
:100D040003F3914007FB09FC0B43190C41EA004132
:100D14008C4504FA02F407D9691807F1FF3031D27F
:100D24008C452FD9023F2944A1EB0C01B1FBF8F00B
:100D340008FB101C00FB09FE99B241EA0C418E45E8
:100D440007D9691800F1FF3318D28E4516D9023835
:100D54002944A1EB0E0140EA07473AE737463046FB
:100D640008E70F46E6E61846FBE64345ABD2B8EB88
:100D7400020169EB0C0201389646A4E71846E8E73D
:100D8400084695E70746CFE781467BE702382C44BF
:100D940047E7AEF1020E2B442FE7384607E7374604
:100DA400E8E600BF704700BF7047000038B50B4B42
:100DB4001868FFF7A1FB0A4C02460B460949206854
:100DC40001F084F8084B1B685D6824682046FFF72F
:100DD40027FA81B22046A84738BD00BF0000002092
:100DE4003C030020102700084003002008B5092018
:100DF40000F0A8F8482000F0DFF800F0A9FE0B4846
:100E040000F046F900F028F8642000F021FF084BB8
:100E140018600849002000F085FE074B1860074859
:100E240000F062FF00F0E2FF002008BD0400002093
:100E34003C0300201000002040030020200000207C
:100E440010B5044C204600F03BFA204600F03CFA72
:100E540010BD00BF6800002008B5024800F044FF40
:100E640008BD00BF7800002021F0604121F07F011F
:100E74000143014B9960704700ED00E0C04300025C
:100E840000F4E060064AD36823F4E0631B041B0CFF
:100E940043F0BF6343F400331843D060704700BF8E
:100EA40000ED00E0F8B506460C4615461F46184608
:100EB400FFF7E4FFC7F104039E400F233B411C40AE
:100EC400344304F00F046809084A52F8203005F04E
:100ED4001F060121B1400B4342F820302A4492F806
:100EE400003343EA041482F80043F8BD00E100E053
:100EF40008B5124B00211961D96014225A61996115
:100F0400D9611A6842F001021A6058680C4A02401A
:100F14005A601A6822F0847222F480321A601A68C5
:100F240022F480221A605A6822F4FE025A60996000
:100F34004FF00060FFF798FF08BD00BF00100240AB
:100F44000000FFF810B50446FFF7D2FF184A1368F3
:100F540043F480331360164B1B685B0CFBD0144BBB
:100F64004FF480625A60023CE4B25A6842EA844414
:100F74005C605A6842F480325A600E490A6842F052
:100F840032020A601A6842F080721A60084B1B68C9
:100F94005B0EFBD0064A536843F002035360002300
:100FA40003E0034B5B68C3F38103022BF9D110BD4B
:100FB4000010024000200240064A136823F0040394
:100FC4001360C008C0EB401300EB8300C300024A67
:100FD4001380704710E000E0FC0200200A4B1B88DD
:100FE40000FB03F0094B586000229A6001221A604A
:100FF400064B1B6803F00113012BF9D0034B0022AD
:101004001A609A60704700BFFC02002010E000E004
:101014002DE9F003016801F14043A3F58433C3F3E0
:1010240087230233DBB2194DAA69012404FA03F3BE
:101034001343AB61D1E9006703799A000F2393400E
:10104400DB4306EA030407EAE375C1E90045D1E995
:101054000045427900798000A0F1200CC0F12007FE
:101064004FF0000902FA0CFC49EA0C0922FA07F7CE
:1010740049EA070902FA00F848EA040249EA0503C2
:10108400C1E90023BDE8F003704700BF001002402F
:101094002DE9F04B8046066806F14047BF0A5FFA27
:1010A40087F9002200234349C1E900234249C1E9E9
:1010B40000230479C3884FF47A7202FB0434E517E1
:1010C40029E03C4BD3E90001421C41F100033B48B9
:1010D4000021FFF7E7FC04FB01F300FB0533A4FB4D
:1010E40000BC9C441BF1FF304CF1FF31324BC3E98F
:1010F4000001D3E900234FF6FE700021994208BF96
:10110400904228D22B49D1E900BC1BF101024CF1D9
:101114000003C1E90023274BD3E900234FF6FE70F7
:101124000021994208BF904215D3224BD3E9000114
:10113400421C41F1000321480021FFF7B3FC134393
:10114400BFD01C49D1E900BC1BF101024CF10003E2
:10115400C1E90023DFE71A4AD369FFB2012000FA8C
:1011640007F10B43D361144BD3E90023F262114B13
:10117400D3E90023B2620023B360F3680343F3604E
:10118400336823F060033360336823F01003336063
:10119400D8F808200B4B43F8272002230A4AD25DD3
:1011A4004946FFF77FFE336843F001033360BDE82F
:1011B400F08B00BF20030020000300204019010031
:1011C4000010024008030020C000002008B54FF0C2
:1011D40080431B6913F0010F02D0054B1B6898472D
:1011E4004FF08042136923F00103136108BD00BF6F
:1011F4000803002008B5074B1B6913F0010F02D048
:10120400054B5B689847034A136923F00103136194
:1012140008BD00BF000400400803002008B5074BC8
:101224001B6913F0010F02D0054B9B689847034AD2
:10123400136923F00103136108BD00BF00080040D7
:101244000803002008B5074B1B6913F0010F02D0F7
:10125400054BDB689847034A136923F001031361C4
:1012640008BD00BF000C00400803002008B5074B70
:101274001B6913F0010F02D0054B1B699847054AFF
:10128400136923F00103136108BD00BF001000407F
:10129400080300200008004008B5074B1B6913F041
:1012A400010F02D0054B5B699847034A136923F089
:1012B4000103136108BD00BF0014004008030020AF
:1012C40008B5FFF7A5FE08BD0168CB6800790122C7
:1012D40082405340CB607047034B984201D8034887
:1012E40070470348704700BF0804024000000240F2
:1012F4000004024030B41A4CA04225D9194D6C693F
:1013040044F002046C61174C646914F0020FFAD0C3
:101314008160C26000220260026842EA0313036033
:101324000368036003680360036843F08003036099
:101334000368036003680360036843F48053036035
:101344000368036030BC7047064D6C6944F00104C7
:101354006C61044C646914F0010FFAD0D8E700BF43
:101364000704024000100240036823F001030360F5
:10137400C1604260036843F00103036070470000EA
:1013840010B50446FFF7A8FF0D4B98420BD00D4B48
:1013940023440D4AA2FB03231B099B000F2202FADC
:1013A40003F3436010BD094B2344074AA2FB032304
:1013B4001B099B000F2202FA03F34360F2E700BF0C
:1013C40000000240F8FBFDBFCDCCCCCCF8FFFDBF44
:1013D4002DE9F84F0546077807F1FF38594E4FEAD3
:1013E400081707EB08034FEA830906EB0904C368EF
:1013F4002364B0F808A0B0F80AB0606900F01CFCDF
:10140400E06800F019FC206900F016FC584600F072
:101414001FFC6061504600F01BFCE060504600F089
:1014240017FC2061A4F806A0E368A360216A0023E6
:10143400E2680431A06AFFF75DFF216A0123626953
:101444000431E06AFFF756FF484630303044FFF776
:10145400DFFD484638303044FFF7DAFD3A4A9369F5
:1014640043F001039361A2F58832536843F0040307
:101474005360A2691368E1690B4313606420FFF7AA
:10148400ADFDD5F804B0D4F820A056F80900FFF754
:1014940041F981464FEA0B10FFF73CF901464846F3
:1014A400FFF744FA8346FFF7DDFA1FFA80F948464E
:1014B400FFF734F901465846FFF77AF84FF08341B5
:1014C400FFF780F9FFF7CEFA80B24FEA09191FFA45
:1014D40089F981441FFA89F0CAF80800226A53691D
:1014E40043F0C0035361226AD36843F4005343F0CA
:1014F4000C03D360226AD36843F01003D3602978C5
:10150400023101232279C9B20020FFF7CBFC2978EC
:101514000139012394F82420C9B20020FFF7C2FC4A
:10152400E288A168A06AFFF71FFF102000F090FB7B
:101534002B78013B054951F8233043600560BDE831
:10154400F88F00BFD000002000100240C800002027
:10155400194B1B6813F0100F00D1704770B5164B70
:101564005B68164BDC889B6A5B689BB2E41AA4B286
:10157400A4B1124B9E68DB689E4219D00F4A936057
:101584000E4DA86AFFF7FCFEEA88A968A86AFFF76F
:10159400EBFE2B6C21463046984770BD074DA86A78
:1015A400FFF7EEFEEA88A968A86AFFF7DDFEE0E728
:1015B400024B1A699A60E3E700380140D00000202A
:1015C4001B4B1B6813F0100F00D1704770B5184BFC
:1015D4005B68184BB3F84A40DB6E5B689BB2E41A55
:1015E400A4B2B4B1134BDE6C1B6D9E421CD0114AE5
:1015F400D364104DE86EFFF7C3FEB5F84A20E96CDA
:10160400E86EFFF7B1FED5F884302146304698479E
:1016140070BD084DE86EFFF7B3FEB5F84A20E96CDB
:10162400E86EFFF7A1FEDDE7024B5A6DDA64E0E7EE
:1016340000440040D000002042B32DE9F041441E94
:10164400904604EB04139A00114B1344DB6A5B6865
:10165400D3B9002309E004EB041085000C482844A6
:101664004269C85CD05401339BB24345F3D3084E5E
:1016740027013B199D003544E86AFFF781FE424685
:101684006969E86AFFF770FEBDE8F081704700BF42
:10169400D000002008B50A4601460120FFF7CCFF20
:1016A40008BD08B50A4601460220FFF7C5FF08BD7C
:1016B4001A4B1B6813F4001F00D1704770B5174B09
:1016C4004FF470025A60164BB3F84A60B6B1144B2B
:1016D400DD6C1B6D9D421CD0114AD364104CE06E2E
:1016E400FFF74EFEB4F84A20E16CE06EFFF73CFED3
:1016F400D4F8843031462846984770BD1C46D86ECD
:10170400FFF73EFEB4F84A20E16CE06EFFF72CFED2
:10171400DDE7034B5A6DDA64E0E700BF00000240E6
:10172400D00000201F4B1B6813F4007F00D17047CA
:1017340070B51C4B4FF470625A601B4BB3F88E604B
:10174400E6B1194BD3F89050D3F894309D4223D08E
:10175400154AC2F89030144CD4F8B000FFF710FECC
:10176400B4F88E20D4F89010D4F8B000FFF7FCFD44
:10177400D4F8C83031462846984770BD1C46D3F883
:10178400B000FFF7FDFDB4F88E20D4F89010D4F823
:10179400B000FFF7E9FDD4E7034BD3F89820C3F872
:1017A4009020D8E700000240D000002010B4084C7C
:1017B400A260E36823F4FF6323F0070300F03F0013
:1017C400184340EA811040F48060E06010BC704728
:1017D40000800140104B5B6B13F0450FFAD013F0FF
:1017E400040F0ED113F0010F10D10B4B1B69834270
:1017F40010D1094B40F2FF529A63586900F0080077
:101804007047054B04229A63032070470120024B62
:1018140098637047102070470080014008B5474B1B
:101824005B6B13F4807F23D0454B1B78012B14D0C2
:10183400444B00221A70414A936B43F480739363C0
:10184400D36B23F4434323F03A03D3633E4B012287
:101854001A703C4B1878C0B208BD002201210C203C
:10186400FFF7A4FF0C20FFF7B5FF364B1870E2E733
:10187400324B5B6B13F0020F15D1304B5B6B13F0E3
:10188400080F1FD12D4B5B6B13F0200F29D12B4B6D
:101894005B6B13F0100F33D1284B5B6B13F4007F99
:1018A4003DD10020D8E7254A936B43F002039363AC
:1018B400D36B23F4434323F03A03D3630220214B35
:1018C4001870C9E71D4A936B43F008039363D36B05
:1018D40023F4434323F03A03D3630420194B1870D1
:1018E400BAE7164A936B43F020039363D36B23F454
:1018F400434323F03A03D3630620124B1870ABE73B
:101904000E4A936B43F010039363D36B23F4434366
:1019140023F03A03D36305200A4B18709CE7074A67
:10192400936B43F400739363D36B23F4434323F027
:101934003A03D3630720034B18708DE700800140FE
:10194400280300202A0300202903002008B5FFF7FC
:1019540065FF08BD10F0030F16D10D4BA3FB002348
:101964005B09642202FB13039BB27BB9084BA3FB04
:101974000023DB094FF4C87202FB130080B208B1E4
:1019840000207047012070470020704701207047F5
:101994001F85EB5130B41A4CA4FB00346409E3B244
:1019A400642505FB1404E4B2132B01D92C44E4B2DE
:1019B40004EB9403134DA5FB0305581B05EB5000E2
:1019C4008008C0EBC000181A80B2104480B24B1ECD
:1019D4000D4AD25C104480B214F0030F03D10229E3
:1019E40001D8013880B2074BA3FB0023C21A03EBD2
:1019F40052039B08C3EBC303C01AC0B230BC704788
:101A04001F85EB512549922428270008F8B52F4B50
:101A14009A69DF6907EB02472D4BDF602D4CA4FB6D
:101A24000734240C40F2B27603E0A4F26D140136BC
:101A3400B6B2B4F5B67F0AD93046FFF78BFF00285B
:101A4400F3D0B4F5B77F02D3A4F5B774EFE7204B16
:101A54009E80002506E0204B5B5DA3420FD8E41A6C
:101A64000135ADB21B2C0AD93046FFF773FF0028AD
:101A7400F1D0012DEFD11C2C01D91D3CF0E7691CDC
:101A8400C9B2134DA971621CD2B2EA71114BA3FB06
:101A940007031B0C114800FB13731148A0FB034000
:101AA400C00A28704FF4616404FB10340D4BA3FB8F
:101AB40004035B096B70C3EB03139800201AA8702E
:101AC4003046FFF767FF28720020F8BD0028004069
:101AD4009C01002007452EC21C27000880510100EC
:101AE400C5B3A2918988888808B50D4B5B6813F04B
:101AF400010F11D10A4B5B6813F0020F04D0084A9E
:101B0400536823F002035360054A536823F0050326
:101B14001B051B0D536008BDFFF778FFEAE700BF04
:101B24000028004020B908B50846FFF751FC08BD5D
:101B340000207047014B1868704700BF2C03002039
:101B440002E0017001301A46531E002AF9D1704791
:101B540010B5054C4FF400620021E068FFF7F0FF78
:101B64000123237410BD00BFAC01002010B504464E
:101B74001A4B1B7C13B9194B1B6898475CB3A1091A
:101B840014F03F0F00D00131002240F2FF1303E0B4
:101B9400002291420BD0013B002B19DB0F48C46893
:101BA400184654F82340002CF2D10132F1E70C4AD4
:101BB400136803EB811313600023994206D9074A83
:101BC400D268C41842F824100133F6E7800110BD2E
:101BD4004FF0FF30FBE74FF0FF30F8E7AC01002097
:101BE4002C03002038B5124B1B7C23B9104B1B6807
:101BF4009847012038BDB0F5004F16D280090C4B30
:101C0400DB6853F820500B4A1368A3EB8513136069
:101C1400002306E0064AD2681918002442F821403D
:101C24000133AB42F6DB0020E4E70220E2E700BF29
:101C3400AC0100202C03002038B108B50346034A48
:101C44009068181AFFF7CEFF08BD7047AC0100205A
:101C540008B5FFF78BFFB0F1FF3F03D0024B9B6841
:101C6400184408BD0020FCE7AC0100202DE9300831
:101C74000F4BD3E902238B4208BF82420CD30C4B97
:101C8400D3E90223121A63EB010314461D462046CE
:101C94002946BDE830087047054BD3E90223121AE0
:101CA40063EB010312F1FF3443F1FF35EFE700BFAB
:101CB400C00100207047704738B504460D46084BF4
:101CC400D3E90201074BC3E90001064BD3E9000144
:101CD400FFF7CCFFA94208BFA042F6D338BD00BF2E
:101CE400C0010020488B00202DE9F04F83B0344917
:101CF400D1E90223C0E9002304694669314BA4FBFE
:101D0400034503FB06558369C2692F4EA3FB06AB4B
:101D140006FB02BB1AEB04084BEB0509D0E90A45A4
:101D24006E01620146EAD463121B63EB05039E0055
:101D340046EA927697003A1946EB0503DC0044EA3A
:101D44005274D50000950194D0E908674FEA471C06
:101D540074014CEAD665A21B65EB07034FEA830CBA
:101D64004CEA927C4FEA820E1EEB06044CEB07050C
:101D74002F0147EA14772601361B67EB0507B246A5
:101D84007E0146EADA664FEA4A17DDE90023D219F2
:101D9400734118EB020449EB0305D0E90CAB14EBD7
:101DA4000A0845EB0B09C0E902898B691A6C0264C5
:101DB40043641A6C5064186403B0BDE8F08F00BF2C
:101DC400C0010020005C260580EE36004DF804BDFD
:101DD4000549D1E902BC1BF101024CF10003C1E940
:101DE40002235DF804BB7047C001002010B50B4C02
:101DF40000E0646CD4E90001FFF738FFD4E9022362
:101E0400994208BF9042F4D3054BD3E90223C4E9B5
:101E14000023E36BA06B9847EBE700BF3002002080
:101E2400C0010020002103E00A4B5B5843500431F9
:101E340009480A4B42189A42F6D3094A02E00023A1
:101E440042F8043B074B9A42F9D300F00FF8FEF72F
:101E5400CDFF70477827000800000020DC02002036
:101E6400E0020020548B0020FEE7000070B500253E
:101E74000C4E0D4CA41BA410A54209D100F03AFC51
:101E840000250A4E0A4CA41BA410A54205D170BD1E
:101E940056F8253098470135EEE756F8253098472F
:101EA4000135F2E770270008702700087027000842
:101EB4007427000810B5431E0A44914200D110BD96
:101EC40011F8014B03F8014FF7E700000EB46FF06F
:101ED400004100B59CB01DAB02900690079104919F
:101EE4000848094953F8042B0591006802A9019395
:101EF40000F066F80022029B1A701CB05DF804EB37
:101F040003B07047780200200802FFFF2DE9F04774
:101F14008E6882469E420C469046994637D88A89F6
:101F240012F4906F31D00223256809696F1A65692C
:101F340005EB450595FBF3F509F101033B449D428F
:101F440038BF1D46530530D5294600F02BFB064605
:101F540050B90C234FF0FF30CAF80030A38943F086
:101F64004003A381BDE8F0873A462169FFF7A2FF49
:101F7400A38923F4906343F08003A38126613E4444
:101F840026604E466561ED1BA5604E4500D94E4660
:101F940032464146206800F09FFAA36800209B1B4C
:101FA400A36023681E442660DCE72A4600F054FB45
:101FB40006460028E2D12169504600F0A7FAC8E796
:101FC4002DE9F04F9DB003938B8980461D060C4686
:101FD40016460FD50B696BB9402100F0E3FA206077
:101FE400206128B90C23C8F800304FF0FF30C7E057
:101FF400402363610023099320238DF82930302383
:102004004FF0010B8DF82A3037463D4615F8013B59
:102014000BB1252B3ED1B7EB060A0BD05346324603
:1020240021464046FFF772FF013000F0A480099B6F
:10203400534409933B78002B00F09D8000234FF01C
:10204400FF32CDE90523049307938DF853301A9397
:102054002F46052217F8011B4F4800F02FFA049B66
:10206400D0B9D90644BF20228DF853201A0744BFA3
:102074002B228DF853202A782A2A15D02F460020A7
:102084000A25079A394611F8013B303B092B4DD9F3
:10209400B8B10FE02F46B8E73F4A3D46801A0BFA25
:1020A40000F018430490D3E7039A111D12680391BA
:1020B400002A01DB079204E0524243F00203079234
:1020C40004933B782E2B0CD17B782A2B33D1039BA2
:1020D40002371A1D1B680392002BB8BF4FF0FF3361
:1020E40005932E4D03223978284600F0E7F938B1DC
:1020F4004023401B03FA00F0049B0137034304937D
:102104003978062226487E1C8DF8281000F0D6F96E
:10211400002838D0234B13BB039B073323F007035A
:1021240008330393099B4B4409936DE705FB023283
:1021340001200F46A6E700230A2519460137059317
:10214400384610F8012B303A092A03D9002BC8D09D
:102154000591C6E705FB012101230746F0E703AB20
:1021640000932246104B04A94046AFF30080B0F11F
:10217400FF3F8146D6D1A3895B063FF536AF099868
:102184001DB0BDE8F08F03AB00932246064B04A9B3
:10219400404600F081F8EAE7342700083A270008AF
:1021A4003E27000800000000111F00082DE9F04739
:1021B40091461F468A680B6906469342B8BF134688
:1021C400C9F8003091F843200C46DDF8208012B1A4
:1021D4000133C9F800302368990642BFD9F80030AA
:1021E4000233C9F80030256815F0060507D104F15B
:1021F400190AE368D9F800209B1AAB4229DC94F849
:1022040043302268003318BF012392062ED404F110
:10221400430239463046C047013021D02368E5687F
:1022240003F00603042B18BF0025D9F800204FF053
:10223400000908BFAD1AA368226908BF25EAE5753D
:102244009342C4BF9B1AED181A344D451AD100208D
:1022540008E00123524639463046C047013003D1D5
:102264004FF0FF30BDE8F0870135C2E73020E118B8
:1022740081F843005A1C94F845102244023382F832
:102284004310C4E70123224639463046C047013093
:10229400E6D009F10109D8E72DE9F04301F1430C37
:1022A4000C46097E85B06E291746064698460C9A58
:1022B40000F0B38022D8632936D00AD8002900F070
:1022C400B980582900F0838004F1420584F8421053
:1022D40032E0642901D06929F6D120681368050623
:1022E40003F104012AD51B681160002B03DA2D22A7
:1022F4005B4284F843206F480A2239E0732900F0D6
:102304009D8008D86F2920D07029DDD1236843F03F
:102314002003236003E0752917D07829D4D17823CA
:10232400654884F8453055E0136804F14205191DE9
:102334001B68116084F8423001238CE01B6810F0A4
:10234400400F116018BF1BB2CFE713682568181D32
:102354001060280601D51B6802E06806FBD51B88BF
:102364006F2914BF0A2208225248002184F843101E
:102374006568002DA560C0F29580216821F00401F4
:102384002160002B3DD1002D40F08E806546082A47
:102394000BD12368DB0708D5236962689A42DEBF44
:1023A400302305F8013C05F1FF35ACEB050323614F
:1023B400CDF800803B4603AA21463046FFF7F6FEDF
:1023C40001304DD14FF0FF3005B0BDE8F0833948FE
:1023D40084F84510136821681D1D1B6815600A06E2
:1023E4000BD5CA0744BF41F0200121601BB9226804
:1023F40022F0200222601022B7E74D0648BF9BB2AC
:10240400EFE76546B3FBF2F102FB1133C35C05F859
:10241400013D0B460029F5D1B9E713682568181D5D
:102424006169106028061B6801D5196002E06A061C
:10243400FBD51980002365462361B9E71368191D8C
:1024440011601D6862680021284600F037F808B161
:10245400401B606063682361002384F84330A7E76E
:1024640023692A4639463046C0470130AAD023683A
:102474009B0713D4E068039B9842B8BF1846A3E7B0
:1024840001234A4639463046C04701309AD00135C7
:10249400E368039A9B1AAB42F2DCEBE7002504F1F4
:1024A4001909F5E7002BACD1037804F1420584F84F
:1024B40042306CE7452700085627000810B5C9B21A
:1024C40002449042034601D1002303E01C7801300A
:1024D4008C42F6D1184610BD884210B501EB0203B8
:1024E40007D8421E99420AD011F8014B02F8014F55
:1024F400F8E78342F5D98118D21AD34200D110BD2E
:1025040013F8014D01F8014DF7E7000038B5054611
:10251400002943D051F8043C0C1F002BB8BFE41829
:1025240000F0D0F81E4A1368104633B96360146093
:102534002846BDE8384000F0C6B8A3420BD921684C
:102544006218934201BF1A685B6852182260636084
:102554000460EDE713465A680AB1A242FAD9196831
:102564005818A0420BD120680144581882421960BF
:10257400DED110685268014419605A60D8E702D964
:102584000C232B60D4E7206821188A4201BF11680C
:1025940052680918216062605C60C9E738BD00BFF9
:1025A4003003002070B5CD1C25F0030508350C2D33
:1025B40038BF0C25002D064601DBA94203D90C23A4
:1025C4003360002070BD00F07DF8214A1468214674
:1025D40091B9204C23681BB9304600F063F82060A1
:1025E4002946304600F05EF8431C24D10C233046C3
:1025F400336000F068F8E4E70B685B1B18D40B2B1E
:102604000FD90B60CC18CD50304600F05CF804F1C3
:102614000B00231D20F00700C31AD3D05A42E25006
:10262400D0E74B688C4216BF636013600C46EBE73F
:102634000C464968CCE7C41C24F00304A04205D02E
:10264400211A304600F02EF80130CFD02560DBE7A8
:102654003003002034030020F8B5074614460E4624
:1026640021B9BDE8F8401146FFF79CBF22B9FFF736
:102674004DFF25462846F8BD00F026F8A0420FD2AB
:1026840021463846FFF78EFF05460028F2D0314632
:102694002246FFF70FFC31463846FFF737FFE9E7DC
:1026A4003546E7E738B50023054C05460846236060
:1026B40000F012F8431C02D1236803B12B6038BD2B
:1026C400508B00207047704751F8043C181F002BB2
:1026D400BCBF0B58C0187047044A05491368002B47
:1026E40008BF0B4618441060184670473803002092
:1026F400588B0020F8B500BFF8BC08BC9E46704754
:0C270400F8B500BFF8BC08BC9E4670474A
:10271000746573743A252E33660D0A001F1C1F1E44
:102720001F1E1F1F1E1F1E1F00030306010406029B
:1027300005000305232D302B2000686C4C006566D6
:102740006745464700303132333435363738394102
:102750004243444546003031323334353637383918
:0827600061626364656600001C
:0827680070E3FF7F0100000097
:042770000902000852
:04277400E501000873
:102778007D1F6A430000004000000100D11D0008D1
:102788000200000000C2010000040004AD0D0008B2
:102798000000000000000000000000000000000031
:1027A8000000000000000000000000000000000021
:1027B8000000000000000000000000000000000011
:1027C800E80300000000000000000000B10D000850
:1027D8000000000000000000000C01400C03000095
:1027E80000000000000000000000000000000000E1
:1027F80000000000000000000000000000000000D1
:1028080000000000000000000000000000000000C0
:1028180000000000000000001E0000000000000092
:1028280000000000450E0008000000000000000045
:102838001C1D1E323637000099160008A71600081E
:1028480000A24A042500000000000000000000006B
:1028580000000000000000001810024000400000C6
:10286800003801400F0E00005800024044000240AA
:10287800000C0140060B0000000C0140070400009A
:1028880000000000005125022600000000000000A2
:102898000000000000000000000000001C100240C2
:1028A8000000020000440040101100006C000240CB
:1028B8008000024000080140020B000000080140AF
:1028C800030400000000000000512502270000005A
:1028D80000000000000000000000000000000000F0
:1028E8001C10024000000400004800400D0C0000CD
:1028F800300002401C000240000C01400A0B00009E
:10290800000C01400B040000000000000E23320000
:10291800E3070C090000000000000000551B000838
:10292800391B0008480B0020480300200000000065
:10293800000000000000000000000000000000008F
:102948003002002030020020E8010020711C00083D
:10295800BD1C00080000000000000000000000008E
:10296800000000000000000000000000000000005F
:10297800000000000000000000000000000000004F
:10298800000000000000000000000000000000003F
:1029980000000000BB1C00083002002030020020AC
:1029A800000000000000000000000000000000001F
:1029B800000000000000000000000000000000000F
:1029C80000000000000000000000000000000000FF
:1029D800000000000000000000000000B91C000812
:1029E800E8010020E80100207C020020000000002F
:1029F80000000000000000000000000000000000CF
:102A080000000000000000000000000000000000BE
:102A180000000000000000000000000000000000AE
:102A2800000000000000000000000000000000009E
:102A3800000000000000000000000000000000008E
:0C2A480000000000000000000000000082
:0400000508001E29A8
:00000001FF
