:020000040800F2
:1000000000800120ED1100083112000831120008B3
:1000100031120008311200083112000800000000FF
:100020000000000000000000000000003112000885
:1000300031120008000000003112000831120008DF
:100040003112000831120008311200085D0F00085B
:100050003112000831120008311200083112000874
:100060003112000831120008311200083112000864
:1000700031120008990B00083112000831120008F3
:10008000250B000831120008311200083112000857
:100090003112000831120008311200083112000834
:1000A0003112000831120008311200083112000824
:1000B000AD080008D5080008FD0800083112000846
:1000C0003112000831120008311200083112000804
:1000D000311200083D0A0008AD0A0008311200087C
:1000E00031120008311200083112000831120008E4
:1000F00031120008311200083112000831120008D4
:1001000031120008C10D000825090008311200084D
:1001100031120008311200084D0900087909000861
:1001200031120008311200083112000831120008A3
:1001300000000000000000000000000000000000BF
:1001400000000000000000000000000000000000AF
:10015000000000000000000000000000000000009F
:10016000000000000000000000000000000000008F
:10017000000000000000000000000000000000007F
:10018000000000000000000000000000000000006F
:10019000000000000000000000000000000000005F
:1001A000000000000000000000000000000000004F
:1001B000000000000000000000000000000000003F
:1001C000000000000000000000000000000000002F
:1001D000000000000000000000000000000000001F
:0401E0005FF8E0F1F3
:1001E40010B5054C237833B9044B13B10448AFF36D
:1001F40000800123237010BD0802002000000000CD
:100204007C12000808B5034B1BB103490348AFF344
:10021400008008BD000000000C0200207C120008D1
:1002240053B94AB9002908BF00281CBF4FF0FF3159
:100234004FF0FF3000F074B9ADF1080C6DE904CE55
:1002440000F006F8DDF804E0DDE9022304B07047AD
:100254002DE9F0478C460446089E002B4BD18A4278
:10026400154667D9B2FA82F24AB1C2F1200701FAFF
:1002740002F320FA07F7954047EA030C94404FEA4B
:10028400154EBCFBFEF71FFA85F80EFB17C307FBE0
:1002940008F9210C41EA0343994509D9EB1807F100
:1002A400FF3180F01C81994540F21981023F2B44B3
:1002B400A3EB0903B3FBFEF00EFB103300FB08F1C4
:1002C400A4B244EA0344A14209D92C1900F1FF3332
:1002D40080F00781A14240F2048102382C4440EAB4
:1002E40007400027641A1EB10023D440C6E9004326
:1002F4003946BDE8F0878B4209D9002E00F0EC8026
:100304000027C6E9000138463946BDE8F087B3FA4C
:1003140083F7002F48D18B4202D3824200F2FB8044
:10032400841A61EB030301209C46002EE0D0C6E949
:10033400004CDDE702B9FFDEB2FA82F2002A40F097
:100344008F800127491B4FEA15481FFA85F9B1FB35
:10035400F8FE08FB1E1109FB0EF04FEA144C4CEAA0
:100364000143984207D9EB180EF1FF3102D29842AB
:1003740000F2CD808E461B1AB3FBF8F008FB103355
:1003840009FB00F9A4B244EA0344A14507D92C1996
:1003940000F1FF3302D2A14500F2B6801846A4EB67
:1003A400090440EA0E409EE7C7F12005BB4022FA4B
:1003B40005FC4CEA030C21FA05F44FEA1C4EB4FB8D
:1003C400FEF91FFA8CF80EFB194420FA05F3B94024
:1003D40009FB08FA19430B0C43EA0444A24502FA48
:1003E40007F200FA07F30BD91CEB040409F1FF3000
:1003F40080F08880A24540F28580A9F10209644416
:10040400A4EB0A04B4FBFEF00EFB104400FB08FA54
:1004140089B241EA0444A24508D91CEB040400F162
:10042400FF316BD2A24569D90238644440EA0940DD
:10043400A0FB0289A4EB0A044C454146CE4654D3A2
:1004440051D0002E69D05A1A64EB0E0404FA05F553
:1004540022FA07F3FC401D43C6E90054002747E78E
:100464009540C2F1200321FA03F04FEA1548B0FB8E
:10047400F8F71FFA85F908FB170024FA03F39140F3
:1004840007FB09FC0B43190C41EA00418C4504FAB3
:1004940002F407D9691807F1FF3031D28C452FD9FE
:1004A400023F2944A1EB0C01B1FBF8F008FB101C3E
:1004B40000FB09FE99B241EA0C418E4507D969183F
:1004C40000F1FF3318D28E4516D902382944A1EB26
:1004D4000E0140EA07473AE73746304608E70F4639
:1004E400E6E61846FBE64345ABD2B8EB020169EBFE
:1004F4000C0201389646A4E71846E8E7084695E753
:100504000746CFE781467BE702382C4447E7AEF144
:10051400020E2B442FE7384607E73746E8E600BFCC
:10052400704700BF08B5092000F090F8482000F09B
:10053400C7F800F03DFD034800F018F900F00CF88E
:1005440000F01EFE0000002008B5024800F02AFA60
:1005540008BD00BF0C00002008B5034800F01EFAD7
:10056400024800F09BFD08BD0C000020180000208C
:1005740021F0604121F07F010143014B99607047F4
:1005840000ED00E0C043000200F4E060064AD368D6
:1005940023F4E0631B041B0C43F0BF6343F40033F8
:1005A4001843D060704700BF00ED00E0F8B5064680
:1005B4000C4615461F461846FFF7E4FFC7F104032F
:1005C4009E400F233B411C40344304F00F04680950
:1005D400084A52F8203005F01F060121B1400B43B0
:1005E40042F820302A4492F8003343EA041482F893
:1005F4000043F8BD00E100E008B5124B0021196189
:10060400D96014225A619961D9611A6842F00102D1
:100614001A6058680C4A02405A601A6822F08472C0
:1006240022F480321A601A6822F480221A605A680E
:1006340022F4FE025A6099604FF00060FFF798FFC1
:1006440008BD00BF001002400000FFF810B50446CA
:10065400FFF7D2FF184A136843F480331360164B34
:100664001B685B0CFBD0144B4FF480625A60023C55
:10067400E4B25A6842EA84445C605A6842F48032C4
:100684005A600E490A6842F032020A601A6842F05F
:1006940080721A60084B1B685B0EFBD0064A5368D5
:1006A40043F002035360002303E0034B5B68C3F38E
:1006B4008103022BF9D110BD00100240002002403A
:1006C400074A136823F004031360C008054B18702D
:1006D400C0EB401300EB8300C300034A1380704750
:1006E40010E000E026020020240200202DE9F0039F
:1006F400016801F14043A3F58433C3F38723023334
:10070400DBB2194DAA69012404FA03F31343AB6164
:10071400D1E9006703799A000F239340DB4306EA8B
:10072400030407EAE375C1E90045D1E900454279CC
:1007340000798000A0F1200CC0F120074FF00009DF
:1007440002FA0CFC49EA0C0922FA07F749EA0709FC
:1007540002FA00F848EA040249EA0503C1E9002361
:10076400BDE8F003704700BF001002402DE9F04BD4
:100774008046066806F14047BF0A5FFA87F90022FF
:1007840000234349C1E900234249C1E90023047914
:10079400C3884FF47A7202FB0434E51729E03C4B1A
:1007A400D3E90001421C41F100033B480021FFF75B
:1007B40037FD04FB01F300FB0533A4FB00BC9C44A0
:1007C4001BF1FF304CF1FF31324BC3E90001D3E997
:1007D40000234FF6FE700021994208BF904228D2B0
:1007E4002B49D1E900BC1BF101024CF10003C1E922
:1007F4000023274BD3E900234FF6FE7000219942D2
:1008040008BF904215D3224BD3E90001421C41F1A9
:10081400000321480021FFF703FD1343BFD01C4907
:10082400D1E900BC1BF101024CF10003C1E9002332
:10083400DFE71A4AD369FFB2012000FA07F10B433C
:10084400D361144BD3E90023F262114BD3E90023A3
:10085400B2620023B360F3680343F360336823F0A8
:1008640060033360336823F010033360D8F8082042
:100874000B4B43F8272002230A4AD25D4946FFF76F
:1008840095FE336843F001033360BDE8F08B00BF8D
:1008940048020020280200204019010000100240F4
:1008A400300200206000002008B54FF080431B692F
:1008B40013F0010F02D0054B1B6898474FF080429C
:1008C400136923F00103136108BD00BF3002002047
:1008D40008B5074B1B6913F0010F02D0054B5B6889
:1008E4009847034A136923F00103136108BD00BF4D
:1008F400000400403002002008B5074B1B6913F0C8
:10090400010F02D0054B9B689847034A136923F0F3
:100914000103136108BD00BF00080040300200203D
:1009240008B5074B1B6913F0010F02D0054BDB68B8
:100934009847034A136923F00103136108BD00BFFC
:10094400000C00403002002008B5074B1B6913F06F
:10095400010F02D0054B1B699847054A136923F020
:100964000103136108BD00BF0010004030020020E5
:100974000008004008B5074B1B6913F0010F02D0B3
:10098400054B5B699847034A136923F0010313611C
:1009940008BD00BF001400403002002008B5FFF776
:1009A400A5FE08BD0168CB6800790122824053404E
:1009B400CB607047034B984201D803487047034803
:1009C400704700BF080402400000024000040240D7
:1009D400036823F001030360C1604260036843F0CD
:1009E400010303607047000010B50446FFF7E2FFFF
:1009F4000D4B98420BD00D4B23440D4AA2FB03230D
:100A04001B099B000F2202FA03F3436010BD094B3C
:100A14002344074AA2FB03231B099B000F2202FA6B
:100A240003F34360F2E700BF00000240F8FBFDBFA0
:100A3400CDCCCCCCF8FFFDBF194B1B6813F0100FC5
:100A440000D1704770B5164B5B68164BDC889B6A07
:100A54005B689BB2E41AA4B2A4B1124B9E68DB6833
:100A64009E4219D00F4A93600E4DA86AFFF7BCFF4F
:100A7400EA88A968A86AFFF7ABFF2B6C21463046C9
:100A8400984770BD074DA86AFFF7AEFFEA88A968CA
:100A9400A86AFFF79DFFE0E7024B1A699A60E3E753
:100AA40000380140680000201B4B1B6813F0100F36
:100AB40000D1704770B5184B5B68184BB3F84A40C7
:100AC400DB6E5B689BB2E41AA4B2B4B1134BDE6C68
:100AD4001B6D9E421CD0114AD364104DE86EFFF783
:100AE40083FFB5F84A20E96CE86EFFF771FFD5F88B
:100AF400843021463046984770BD084DE86EFFF7B4
:100B040073FFB5F84A20E96CE86EFFF761FFDDE793
:100B1400024B5A6DDA64E0E70044004068000020AC
:100B24001A4B1B6813F4001F00D1704770B5174BA4
:100B34004FF470025A60164BB3F84A60B6B1144BC6
:100B4400DD6C1B6D9D421CD0114AD364104CE06EC9
:100B5400FFF74AFFB4F84A20E16CE06EFFF738FF74
:100B6400D4F8843031462846984770BD1C46D86E68
:100B7400FFF73AFFB4F84A20E16CE06EFFF728FF74
:100B8400DDE7034B5A6DDA64E0E700BF0000024082
:100B9400680000201F4B1B6813F4007F00D17047CE
:100BA40070B51C4B4FF470625A601B4BB3F88E60E7
:100BB400E6B1194BD3F89050D3F894309D4223D02A
:100BC400154AC2F89030144CD4F8B000FFF70CFF6B
:100BD400B4F88E20D4F89010D4F8B000FFF7F8FEE3
:100BE400D4F8C83031462846984770BD1C46D3F81F
:100BF400B000FFF7F9FEB4F88E20D4F89010D4F8C2
:100C0400B000FFF7E5FED4E7034BD3F89820C3F810
:100C14009020D8E7000002406800002010B4084C7F
:100C2400A260E36823F4FF6323F0070300F03F00AE
:100C3400184340EA811040F48060E06010BC7047C3
:100C440000800140104B5B6B13F0450FFAD013F09A
:100C5400040F0ED113F0010F10D10B4B1B6983420B
:100C640010D1094B40F2FF529A63586900F0080012
:100C74007047054B04229A63032070470120024BFE
:100C840098637047102070470080014008B5474BB7
:100C94005B6B13F4807F23D0454B1B78012B14D05E
:100CA400444B00221A70414A936B43F4807393635C
:100CB400D36B23F4434323F03A03D3633E4B012223
:100CC4001A703C4B1878C0B208BD002201210C20D8
:100CD400FFF7A4FF0C20FFF7B5FF364B1870E2E7CF
:100CE400324B5B6B13F0020F15D1304B5B6B13F07F
:100CF400080F1FD12D4B5B6B13F0200F29D12B4B09
:100D04005B6B13F0100F33D1284B5B6B13F4007F34
:100D14003DD10020D8E7254A936B43F00203936347
:100D2400D36B23F4434323F03A03D3630220214BD0
:100D34001870C9E71D4A936B43F008039363D36BA0
:100D440023F4434323F03A03D3630420194B18706C
:100D5400BAE7164A936B43F020039363D36B23F4EF
:100D6400434323F03A03D3630620124B1870ABE7D6
:100D74000E4A936B43F010039363D36B23F4434302
:100D840023F03A03D36305200A4B18709CE7074A03
:100D9400936B43F400739363D36B23F4434323F0C3
:100DA4003A03D3630720034B18708DE7008001409A
:100DB40050020020520200205102002008B5FFF723
:100DC40065FF08BD10F0030F16D10D4BA3FB0023E4
:100DD4005B09642202FB13039BB27BB9084BA3FBA0
:100DE4000023DB094FF4C87202FB130080B208B180
:100DF4000020704701207047002070470120704791
:100E04001F85EB5130B41A4CA4FB00346409E3B2DF
:100E1400642505FB1404E4B2132B01D92C44E4B279
:100E240004EB9403134DA5FB0305581B05EB50007D
:100E34008008C0EBC000181A80B2104480B24B1E68
:100E44000D4AD25C104480B214F0030F03D102297E
:100E540001D8013880B2074BA3FB0023C21A03EB6D
:100E640052039B08C3EBC303C01AC0B230BC704723
:100E74001F85EB5125499224A0120008F8B52F4B89
:100E84009A69DF6907EB02472D4BDF602D4CA4FB09
:100E94000734240C40F2B27603E0A4F26D14013658
:100EA400B6B2B4F5B67F0AD93046FFF78BFF0028F7
:100EB400F3D0B4F5B77F02D3A4F5B774EFE7204BB2
:100EC4009E80002506E0204B5B5DA3420FD8E41A08
:100ED4000135ADB21B2C0AD93046FFF773FF002849
:100EE400F1D0012DEFD11C2C01D91D3CF0E7691C78
:100EF400C9B2134DA971621CD2B2EA71114BA3FBA2
:100F040007031B0C114800FB13731148A0FB03409B
:100F1400C00A28704FF4616404FB10340D4BA3FB2A
:100F240004035B096B70C3EB03139800201AA870C9
:100F34003046FFF767FF28720020F8BD0028004004
:100F44003401002007452EC294120008805101008C
:100F5400C5B3A2918988888808B50D4B5B6813F0E6
:100F6400010F11D10A4B5B6813F0020F04D0084A39
:100F7400536823F002035360054A536823F00503C2
:100F84001B051B0D536008BDFFF778FFEAE700BFA0
:100F940000280040014B1868704700BF540200202D
:100FA40002E0017001301A46531E002AF9D170473D
:100FB40010B5054C4FF400620021E068FFF7F0FF24
:100FC4000123237410BD00BF440100207047704703
:100FD4002DE93008154BD3E90045154BC3E900450D
:100FE4000BE0124BD3E90023121B63EB050393467A
:100FF4009C468C4508BF834515D20D4BD3E900456B
:101004000A4BD3E90023AB4208BFA242E9D2074B03
:10101400D3E900BCBBEB04026CEB050312F1FF3B0C
:1010240043F1FF3CE5E7BDE8300870475801002074
:10103400588A00202DE930080F4BD3E900238B4256
:1010440008BF82420CD30C4BD3E90023121A63EB82
:10105400010314461D4620462946BDE83008704762
:10106400054BD3E90023121A63EB010312F1FF3499
:1010740043F1FF35EFE700BF580100204DF804BDF0
:101084000549D1E900BC1BF101024CF10003C1E99F
:1010940000235DF804BB7047580100202DE9F04F90
:1010A40083B03449D1E90023C0E9002304694669C7
:1010B400314BA4FB034503FB06558369C2692F4EDC
:1010C400A3FB06AB06FB02BB1AEB04084BEB0509BA
:1010D400D0E90A456E01620146EAD463121B63EB50
:1010E40005039E0046EA927697003A1946EB0503FB
:1010F400DC0044EA5274D50000950194D0E90867F5
:101104004FEA471C74014CEAD665A21B65EB070342
:101114004FEA830C4CEA927C4FEA820E1EEB0604E3
:101124004CEB07052F0147EA14772601361B67EBC2
:101134000507B2467E0146EADA664FEA4A17DDE958
:101144000023D219734118EB020449EB0305D0E9DB
:101154000CAB14EB0A0845EB0B09C0E902890B69D7
:101164001A6C026443641A6C5064186403B0BDE8DA
:10117400F08F00BF58010020005C260580EE360089
:101184002DE90048164C16E0164BD3E90023121A39
:1011940063EB010393469C46D4E902018C4508BFE6
:1011A400834507D30F4BD3E90023C4E90023E36B42
:1011B400A06B9847646CD4E900010A4BD3E900237F
:1011C4008B4208BF8242DFD2064BD3E900BCBBEBA3
:1011D40000026CEB010312F1FF3B43F1FF3CDBE740
:1011E400C001002058010020002103E00A4B5B5895
:1011F4004350043109480A4B42189A42F6D3094A2B
:1012040002E0002342F8043B074B9A42F9D300F072
:101214000FF8FFF787F97047BC12000800000020A0
:101224000802002008020020608A0020FEE7000077
:1012340070B500250C4E0D4CA41BA410A54209D179
:1012440000F01AF800250A4E0A4CA41BA410A5426B
:1012540005D170BD56F8253098470135EEE756F8AC
:10126400253098470135F2E7B4120008B41200089B
:10127400B4120008B8120008F8B500BFF8BC08BCE6
:101284009E467047F8B500BFF8BC08BC9E46704740
:101294001F1C1F1E1F1E1F1F1E1F1E1F00030306D1
:0812A400010406020500030528
:0812AC00A8EFFF7F0100000024
:0412B4000902000823
:0412B800E501000844
:1012BC00000000400000010081100008000C0140FB
:1012CC000C03000000000000000000000000000003
:1012DC000000000000000000000000000000000002
:1012EC0000000000000000000000000000000000F2
:1012FC00000000000000000064000000000000007E
:10130C00000000004D050008000000000000000077
:10131C001C1D1E323637000000A24A0425000000B6
:10132C0000000000000000000000000000000000B1
:10133C001810024000400000003801400F0E000061
:10134C00580002404400024000080140090B000014
:10135C00000801400A0400000000000000512502B2
:10136C00260000000000000000000000000000004B
:10137C00000000001C10024000000200004400406D
:10138C00101100006C000240800002400008014077
:10139C00020B0000000801400304000000000000E4
:1013AC000051250227000000000000000000000092
:1013BC0000000000000000001C10024000000400AF
:1013CC00004800400D0C0000300002401C000240A0
:1013DC00000C01400A0B0000000C01400B04000043
:1013EC00000000000E233200E3070C09000000008F
:1013FC0000000000B50F0008990F0008580A0020E3
:10140C005802002000000000000000000000000056
:10141C00C0010020C0010020780100203910000814
:10142C00D50F0008000000000000000000000000C4
:10143C0000000000000000000000000000000000A0
:10144C000000000000000000000000000000000090
:10145C000000000000000000000000000000000080
:10146C0000000000D30F0008C0010020C0010020C4
:10147C000000000000000000000000000000000060
:10148C000000000000000000000000000000000050
:10149C000000000000000000000000000000000040
:1014AC00000000000000000000000000D10F000848
:0814BC007801002078010020F6
:04000005080011EDF1
:00000001FF
